{
  "contractName": "Diploma",
  "abi": [
    {
      "anonymous": false,
      "inputs": [
        {
          "indexed": true,
          "internalType": "bytes32",
          "name": "diplomaId",
          "type": "bytes32"
        },
        {
          "indexed": false,
          "internalType": "string",
          "name": "university",
          "type": "string"
        },
        {
          "indexed": false,
          "internalType": "uint256",
          "name": "timestamp",
          "type": "uint256"
        }
      ],
      "name": "DiplomaRegistered",
      "type": "event"
    },
    {
      "anonymous": false,
      "inputs": [
        {
          "indexed": true,
          "internalType": "bytes32",
          "name": "diplomaId",
          "type": "bytes32"
        },
        {
          "indexed": false,
          "internalType": "bool",
          "name": "valid",
          "type": "bool"
        }
      ],
      "name": "DiplomaVerified",
      "type": "event"
    },
    {
      "inputs": [
        {
          "internalType": "string",
          "name": "_university",
          "type": "string"
        },
        {
          "internalType": "bytes32",
          "name": "_diplomaHash",
          "type": "bytes32"
        }
      ],
      "name": "registerDiploma",
      "outputs": [],
      "stateMutability": "nonpayable",
      "type": "function"
    },
    {
      "inputs": [
        {
          "internalType": "string",
          "name": "_university",
          "type": "string"
        },
        {
          "internalType": "bytes32",
          "name": "_diplomaHash",
          "type": "bytes32"
        }
      ],
      "name": "verifyDiploma",
      "outputs": [
        {
          "internalType": "bool",
          "name": "",
          "type": "bool"
        }
      ],
      "stateMutability": "view",
      "type": "function",
      "constant": true
    }
  ],
  "bytecode": "0x608060405234801561001057600080fd5b506108e5806100206000396000f3fe608060405234801561001057600080fd5b50600436106100365760003560e01c806324717ba71461003b5780634bd45f2b14610057575b600080fd5b61005560048036038101906100509190610386565b610087565b005b610071600480360381019061006c9190610386565b6101a5565b60405161007e91906103fd565b60405180910390f35b6000828260405160200161009c9291906104aa565b6040516020818303038152906040528051906020012090506000806000838152602001908152602001600020600201541461010c576040517f08c379a00000000000000000000000000000000000000000000000000000000081526004016101039061052f565b60405180910390fd5b604051806060016040528084815260200183815260200142815250600080838152602001908152602001600020600082015181600001908161014e9190610765565b506020820151816001015560408201518160020155905050807f5b9ad033c4d12606b33d3d089a112d35e2b47b01399cce7cdb827bec90d7e6e1844260405161019892919061087f565b60405180910390a2505050565b60008083836040516020016101bb9291906104aa565b604051602081830303815290604052805190602001209050600080600083815260200190815260200160002060020154141591505092915050565b6000604051905090565b600080fd5b600080fd5b600080fd5b600080fd5b6000601f19601f8301169050919050565b7f4e487b7100000000000000000000000000000000000000000000000000000000600052604160045260246000fd5b61025d82610214565b810181811067ffffffffffffffff8211171561027c5761027b610225565b5b80604052505050565b600061028f6101f6565b905061029b8282610254565b919050565b600067ffffffffffffffff8211156102bb576102ba610225565b5b6102c482610214565b9050602081019050919050565b82818337600083830152505050565b60006102f36102ee846102a0565b610285565b90508281526020810184848401111561030f5761030e61020f565b5b61031a8482856102d1565b509392505050565b600082601f8301126103375761033661020a565b5b81356103478482602086016102e0565b91505092915050565b6000819050919050565b61036381610350565b811461036e57600080fd5b50565b6000813590506103808161035a565b92915050565b6000806040838503121561039d5761039c610200565b5b600083013567ffffffffffffffff8111156103bb576103ba610205565b5b6103c785828601610322565b92505060206103d885828601610371565b9150509250929050565b60008115159050919050565b6103f7816103e2565b82525050565b600060208201905061041260008301846103ee565b92915050565b600081519050919050565b600081905092915050565b60005b8381101561044c578082015181840152602081019050610431565b60008484015250505050565b600061046382610418565b61046d8185610423565b935061047d81856020860161042e565b80840191505092915050565b6000819050919050565b6104a461049f82610350565b610489565b82525050565b60006104b68285610458565b91506104c28284610493565b6020820191508190509392505050565b600082825260208201905092915050565b7f4469706c6f6d6120616c72656164792072656769737465726564000000000000600082015250565b6000610519601a836104d2565b9150610524826104e3565b602082019050919050565b600060208201905081810360008301526105488161050c565b9050919050565b7f4e487b7100000000000000000000000000000000000000000000000000000000600052602260045260246000fd5b6000600282049050600182168061059657607f821691505b6020821081036105a9576105a861054f565b5b50919050565b60008190508160005260206000209050919050565b60006020601f8301049050919050565b600082821b905092915050565b6000600883026106117fffffffffffffffffffffffffffffffffffffffffffffffffffffffffffffffff826105d4565b61061b86836105d4565b95508019841693508086168417925050509392505050565b6000819050919050565b6000819050919050565b600061066261065d61065884610633565b61063d565b610633565b9050919050565b6000819050919050565b61067c83610647565b61069061068882610669565b8484546105e1565b825550505050565b600090565b6106a5610698565b6106b0818484610673565b505050565b5b818110156106d4576106c960008261069d565b6001810190506106b6565b5050565b601f821115610719576106ea816105af565b6106f3846105c4565b81016020851015610702578190505b61071661070e856105c4565b8301826106b5565b50505b505050565b600082821c905092915050565b600061073c6000198460080261071e565b1980831691505092915050565b6000610755838361072b565b9150826002028217905092915050565b61076e82610418565b67ffffffffffffffff81111561078757610786610225565b5b610791825461057e565b61079c8282856106d8565b600060209050601f8311600181146107cf57600084156107bd578287015190505b6107c78582610749565b86555061082f565b601f1984166107dd866105af565b60005b82811015610805578489015182556001820191506020850194506020810190506107e0565b86831015610822578489015161081e601f89168261072b565b8355505b6001600288020188555050505b505050505050565b600061084282610418565b61084c81856104d2565b935061085c81856020860161042e565b61086581610214565b840191505092915050565b61087981610633565b82525050565b600060408201905081810360008301526108998185610837565b90506108a86020830184610870565b939250505056fea2646970667358221220a248e752e6827883a9ad8bb7586ee81992899284a7d8f237eddb06fe40c38db064736f6c63430008130033",
  "immutableReferences": {},
  "source": "// SPDX-License-Identifier: MIT\npragma solidity ^0.8.19;\n\ncontract Diploma {\n    struct DiplomaData {\n        string university;\n        bytes32 diplomaHash;\n        uint256 timestamp;\n    }\n\n    mapping(bytes32 => DiplomaData) private diplomas;\n\n    event DiplomaRegistered(bytes32 indexed diplomaId, string university, uint256 timestamp);\n    event DiplomaVerified(bytes32 indexed diplomaId, bool valid);\n\n    function registerDiploma(string memory _university, bytes32 _diplomaHash) public {\n        bytes32 diplomaId = keccak256(abi.encodePacked(_university, _diplomaHash));\n        require(diplomas[diplomaId].timestamp == 0, \"Diploma already registered\");\n\n        diplomas[diplomaId] = DiplomaData({\n            university: _university,\n            diplomaHash: _diplomaHash,\n            timestamp: block.timestamp\n        });\n\n        emit DiplomaRegistered(diplomaId, _university, block.timestamp);\n    }\n\n    function verifyDiploma(string memory _university, bytes32 _diplomaHash) public view returns (bool) {\n        bytes32 diplomaId = keccak256(abi.encodePacked(_university, _diplomaHash));\n        return diplomas[diplomaId].timestamp != 0;\n    }\n}\n",
  "sourcePath": "/home/user/DiplomaChain_project/contracts/Diploma.sol",
  "compiler": {
    "name": "solc",
    "version": "0.8.19+commit.7dd6d404.Emscripten.clang"
  },
  "schemaVersion": "3.4.16",
  "updatedAt": "2024-12-13T09:54:38.408Z",
  "networkType": "ethereum",
  "devdoc": {
    "kind": "dev",
    "methods": {},
    "version": 1
  },
  "userdoc": {
    "kind": "user",
    "methods": {},
    "version": 1
  }
}